{
  "contractName": "Casino",
  "abi": [
    {
      "constant": true,
      "inputs": [],
      "name": "numberOfBets",
      "outputs": [
        {
          "name": "",
          "type": "uint256"
        }
      ],
      "payable": false,
      "stateMutability": "view",
      "type": "function"
    },
    {
      "constant": true,
      "inputs": [
        {
          "name": "",
          "type": "address"
        }
      ],
      "name": "playerInfo",
      "outputs": [
        {
          "name": "amountBet",
          "type": "uint256"
        },
        {
          "name": "numberSelected",
          "type": "uint256"
        }
      ],
      "payable": false,
      "stateMutability": "view",
      "type": "function"
    },
    {
      "constant": true,
      "inputs": [],
      "name": "owner",
      "outputs": [
        {
          "name": "",
          "type": "address"
        }
      ],
      "payable": false,
      "stateMutability": "view",
      "type": "function"
    },
    {
      "constant": true,
      "inputs": [],
      "name": "minimumBet",
      "outputs": [
        {
          "name": "",
          "type": "uint256"
        }
      ],
      "payable": false,
      "stateMutability": "view",
      "type": "function"
    },
    {
      "constant": true,
      "inputs": [],
      "name": "maxAmountOfBets",
      "outputs": [
        {
          "name": "",
          "type": "uint256"
        }
      ],
      "payable": false,
      "stateMutability": "view",
      "type": "function"
    },
    {
      "constant": true,
      "inputs": [
        {
          "name": "",
          "type": "uint256"
        }
      ],
      "name": "players",
      "outputs": [
        {
          "name": "",
          "type": "address"
        }
      ],
      "payable": false,
      "stateMutability": "view",
      "type": "function"
    },
    {
      "constant": true,
      "inputs": [],
      "name": "totalBet",
      "outputs": [
        {
          "name": "",
          "type": "uint256"
        }
      ],
      "payable": false,
      "stateMutability": "view",
      "type": "function"
    },
    {
      "inputs": [
        {
          "name": "_minimumBet",
          "type": "uint256"
        },
        {
          "name": "_maxAmountOfBets",
          "type": "uint256"
        }
      ],
      "payable": false,
      "stateMutability": "nonpayable",
      "type": "constructor"
    },
    {
      "payable": true,
      "stateMutability": "payable",
      "type": "fallback"
    },
    {
      "constant": false,
      "inputs": [],
      "name": "kill",
      "outputs": [],
      "payable": false,
      "stateMutability": "nonpayable",
      "type": "function"
    },
    {
      "constant": false,
      "inputs": [
        {
          "name": "numberSelected",
          "type": "uint256"
        }
      ],
      "name": "bet",
      "outputs": [],
      "payable": true,
      "stateMutability": "payable",
      "type": "function"
    },
    {
      "constant": true,
      "inputs": [
        {
          "name": "player",
          "type": "address"
        }
      ],
      "name": "checkPlayerExists",
      "outputs": [
        {
          "name": "",
          "type": "bool"
        }
      ],
      "payable": false,
      "stateMutability": "view",
      "type": "function"
    },
    {
      "constant": false,
      "inputs": [],
      "name": "generateNumberWinner",
      "outputs": [],
      "payable": false,
      "stateMutability": "nonpayable",
      "type": "function"
    },
    {
      "constant": false,
      "inputs": [
        {
          "name": "numberWinner",
          "type": "uint256"
        }
      ],
      "name": "distributePrizes",
      "outputs": [],
      "payable": false,
      "stateMutability": "nonpayable",
      "type": "function"
    }
  ],
  "bytecode": "0x60606040526064600455341561001457600080fd5b604051604080610a5c83398101604052808051906020019091908051906020019091905050336000806101000a81548173ffffffffffffffffffffffffffffffffffffffff021916908373ffffffffffffffffffffffffffffffffffffffff16021790555060008214151561008b57816001819055505b60008114151561009d57806004819055505b50506109ae806100ae6000396000f3006060604052600436106100ba576000357c0100000000000000000000000000000000000000000000000000000000900463ffffffff1680630a50e361146100bc5780632ca8c6d3146100d15780634081d916146100fa57806341c0e1b51461014b5780634b114691146101605780636ca3fc3b146101b45780637365870b146101d75780638da5cb5b146101ef578063c38a8afd14610244578063e08a96cd1461026d578063f71d96cb14610296578063fe5e1853146102f9575b005b34156100c757600080fd5b6100cf610322565b005b34156100dc57600080fd5b6100e4610342565b6040518082815260200191505060405180910390f35b341561010557600080fd5b610131600480803573ffffffffffffffffffffffffffffffffffffffff16906020019091905050610348565b604051808215151515815260200191505060405180910390f35b341561015657600080fd5b61015e6103e3565b005b341561016b57600080fd5b610197600480803573ffffffffffffffffffffffffffffffffffffffff16906020019091905050610474565b604051808381526020018281526020019250505060405180910390f35b34156101bf57600080fd5b6101d56004808035906020019091905050610498565b005b6101ed60048080359060200190919050506106e1565b005b34156101fa57600080fd5b610202610850565b604051808273ffffffffffffffffffffffffffffffffffffffff1673ffffffffffffffffffffffffffffffffffffffff16815260200191505060405180910390f35b341561024f57600080fd5b610257610875565b6040518082815260200191505060405180910390f35b341561027857600080fd5b61028061087b565b6040518082815260200191505060405180910390f35b34156102a157600080fd5b6102b76004808035906020019091905050610881565b604051808273ffffffffffffffffffffffffffffffffffffffff1673ffffffffffffffffffffffffffffffffffffffff16815260200191505060405180910390f35b341561030457600080fd5b61030c6108c0565b6040518082815260200191505060405180910390f35b60006001600a4381151561033257fe5b0601905061033f81610498565b50565b60035481565b600080600090506005805490508110156103dc578273ffffffffffffffffffffffffffffffffffffffff1660058281548110151561038257fe5b906000526020600020900160009054906101000a900473ffffffffffffffffffffffffffffffffffffffff1673ffffffffffffffffffffffffffffffffffffffff1614156103d357600191506103dd565b600091506103dd565b5b50919050565b6000809054906101000a900473ffffffffffffffffffffffffffffffffffffffff1673ffffffffffffffffffffffffffffffffffffffff163373ffffffffffffffffffffffffffffffffffffffff161415610472576000809054906101000a900473ffffffffffffffffffffffffffffffffffffffff1673ffffffffffffffffffffffffffffffffffffffff16ff5b565b60066020528060005260406000206000915090508060000154908060010154905082565b6104a06108c6565b6000806000806000809450600093505b6005805490508410156105f2576005848154811015156104cc57fe5b906000526020600020900160009054906101000a900473ffffffffffffffffffffffffffffffffffffffff16925086600660008573ffffffffffffffffffffffffffffffffffffffff1673ffffffffffffffffffffffffffffffffffffffff1681526020019081526020016000206001015414156105935782868660648110151561055357fe5b602002019073ffffffffffffffffffffffffffffffffffffffff16908173ffffffffffffffffffffffffffffffffffffffff168152505084806001019550505b600660008473ffffffffffffffffffffffffffffffffffffffff1673ffffffffffffffffffffffffffffffffffffffff1681526020019081526020016000206000808201600090556001820160009055505083806001019450506104b0565b60006005816106019190610905565b50606460025481151561061057fe5b049150600090505b848110156106c857600073ffffffffffffffffffffffffffffffffffffffff16868260648110151561064657fe5b602002015173ffffffffffffffffffffffffffffffffffffffff161415156106bb57858160648110151561067657fe5b602002015173ffffffffffffffffffffffffffffffffffffffff166108fc839081150290604051600060405180830381858888f1935050505015156106ba57600080fd5b5b8080600101915050610618565b6000600281905550600060038190555050505050505050565b6106ea33610348565b1515156106f657600080fd5b600181101580156107085750600a8111155b151561071357600080fd5b600154341015151561072457600080fd5b34600660003373ffffffffffffffffffffffffffffffffffffffff1673ffffffffffffffffffffffffffffffffffffffff1681526020019081526020016000206000018190555080600660003373ffffffffffffffffffffffffffffffffffffffff1673ffffffffffffffffffffffffffffffffffffffff16815260200190815260200160002060010181905550600360008154809291906001019190505550600580548060010182816107d89190610931565b9160005260206000209001600033909190916101000a81548173ffffffffffffffffffffffffffffffffffffffff021916908373ffffffffffffffffffffffffffffffffffffffff160217905550503460026000828254019250508190555060045460035410151561084d5761084c610322565b5b50565b6000809054906101000a900473ffffffffffffffffffffffffffffffffffffffff1681565b60015481565b60045481565b60058181548110151561089057fe5b90600052602060002090016000915054906101000a900473ffffffffffffffffffffffffffffffffffffffff1681565b60025481565b610c80604051908101604052806064905b600073ffffffffffffffffffffffffffffffffffffffff168152602001906001900390816108d75790505090565b81548183558181151161092c5781836000526020600020918201910161092b919061095d565b5b505050565b81548183558181151161095857818360005260206000209182019101610957919061095d565b5b505050565b61097f91905b8082111561097b576000816000905550600101610963565b5090565b905600a165627a7a7230582047dd4dd821adc7bd20876b03450ba51c1adcbf1491336a3836d79d82ad460dbf0029",
  "source": "pragma solidity ^0.4.18;\n\ncontract Casino {\n    address public owner;\n    uint256 public minimumBet;\n    uint256 public totalBet;\n    uint256 public numberOfBets;\n    uint256 public maxAmountOfBets = 100;\n    address[] public players;\n\n    struct Player {\n        uint256 amountBet;\n        uint256 numberSelected;\n    }\n\n    mapping(address => Player) public playerInfo;\n\n    function Casino(uint256 _minimumBet, uint256 _maxAmountOfBets) public {\n        owner = msg.sender;\n        if(_minimumBet != 0)\n            minimumBet = _minimumBet;\n        if(_maxAmountOfBets !=0 )\n            maxAmountOfBets = _maxAmountOfBets;\n    }\n\n    function kill() public {\n        if(msg.sender == owner) selfdestruct(owner);\n    }\n\n    function bet(uint256 numberSelected) public payable {\n        require(!checkPlayerExists(msg.sender));\n        require(numberSelected >= 1 && numberSelected <= 10);\n        require(msg.value >= minimumBet);\n\n        playerInfo[msg.sender].amountBet = msg.value;\n        playerInfo[msg.sender].numberSelected = numberSelected;\n        numberOfBets++;\n        players.push(msg.sender);\n        totalBet += msg.value;\n\n        if(numberOfBets >= maxAmountOfBets)\n            generateNumberWinner();\n    }\n\n    function checkPlayerExists(address player) public constant returns(bool) {\n        for(uint256 i=0; i<players.length; i++) {\n            if(players[i] == player) {\n                return true;\n            }\n            return false;\n        }\n    }\n\n    function generateNumberWinner() public {\n        uint256 numberGenerated = block.number % 10 + 1;\n        distributePrizes(numberGenerated);\n    }\n\n    function distributePrizes(uint256 numberWinner) public {\n        address[100] memory winners;\n        uint256 count = 0;\n\n        for(uint256 i=0; i<players.length; i++) {\n            address playerAddress = players[i];\n            if(playerInfo[playerAddress].numberSelected == numberWinner) {\n                winners[count] = playerAddress;\n                count++;\n            }\n            delete playerInfo[playerAddress];\n        }\n\n        players.length = 0;\n\n        uint256 winnerEtherAmount = totalBet/winners.length;\n\n        for(uint256 j=0; j<count; j++) {\n            if(winners[j] != address(0)) {\n                winners[j].transfer(winnerEtherAmount);\n            }\n        }\n\n        totalBet = 0;\n        numberOfBets = 0;\n    }\n\n    function() public payable {}\n}\n",
  "sourcePath": "/mnt/disk2/huyanyan/ethereum/my-ethereum/tutorial/casino-ethereum/contracts/Casino.sol",
  "compiler": {
    "name": "solc",
    "version": "0.4.19+commit.c4cbbb05.Emscripten.clang"
  },
  "schemaVersion": "2.0.0",
  "updatedAt": "2018-03-14T07:17:43.921Z"
}